S0100000636C695F746573742E73726563BD
S3151C0008006F0040116F0000116F00C0106F00801048
S3151C0008106F0040106F0000106F00C00F6F00800F3C
S3151C0008206F00400F6F00000F6F00600E6F00800E90
S3151C0008306F00400E6F00000E6F00C00D6F00800D24
S3151C0008406F00400D6F00000D6F00C00C6F00800C18
S3151C0008506F00400C6F00000C6F00C00B6F00800B0C
S3151C0008606F00400B6F00000B6F00C00A6F00800A00
S3151C0008706F00400A6F00000A6F00C0096F008009F4
S3151C00088097A10100938101EC17710600130181D712
S3151C0008900189731045307325403017050000130578
S3151C0008A065F61365150073105530979201009382F7
S3151C0008B0626B17B301001303635423A00200910259
S3151C0008C0E3ED62FE02454C000146EF70D1636F00FA
S3151C0008D0E0618280000000000000000000000000B3
S3151C0008E000000000000000000000000000000000E6
S3151C0008F000000000000000000000000000000000D6
S3151C00090001000100010001000100010001000100BD
S3151C00091001000100130181F806C216C41AC61EC8BE
S3151C00092022CA26CC2ACE2ED032D236D43AD63ED89D
S3151C00093042DA46DC4ADECEC0D2C2D6C4DAC6DEC82D
S3151C000940E2CAE6CCEACEEED0F2D2F6D4FAD6FED87D
S3151C000950F322003096DA97B2010083A2A23E23A0AE
S3151C000960220073252034F32510341356F50135CA9D
S3151C0009702EC08542FE0213837200631D6504979286
S3151C000980010083A2225D179301000323635CFD5EB5
S3151C00099083230300032E430023A0D20123A2C201FA
S3151C0009A023A072009792010083A202DAB38E720012
S3151C0009B033BF7E00B30FEE012320D3012322F301A4
S3151C0009C017910100032101D8EF00E11529C1EF00A1
S3151C0009D0613135A8179101000321C1D6EFE0A0347F
S3151C0009E03DA091052EC0AD4263195500179101001B
S3151C0009F0032141D5EF00012F19A8F32220347323BC
S3151C000A001034F3230030D5BFF3222034F5BF17B3BF
S3151C000A100100032323330321030082427390123403
S3151C000A20D652739002309240A2423243C243524481
S3151C000A30E244724582551256A2563257C257525834
S3151C000A40E25872598649164AA64A364BC64B564C2C
S3151C000A50E64C764D865D165EA65E365FC65F130156
S3151C000A6081077300203013000000130000001300E0
S3151C000A700000130000001300000013000000130008
S3151C000A8000001300000013000000130000001300F8
S3151C000A9000001300000013000000130000001300E8
S3151C000AA000001300000013000000130000001300D8
S3151C000AB000001300000013000000130000001300C8
S3151C000AC000001300000013000000130000001300B8
S3151C000AD000001300000013000000130000001300A8
S3151C000AE00000130000001300000013000000130098
S3151C000AF0000013000000130000001300000001009A
S3151C000B00130181F806C216C41AC61EC822CA26CCF0
S3151C000B102ACE2ED032D236D43AD63ED842DA46DC4B
S3151C000B204ADECEC0D2C2D6C4DAC6DEC8E2CAE6CC1B
S3151C000B30EACEEED0F2D2F6D4FAD6FED8F3220030A4
S3151C000B4096DA97B2010083A2E21F23A02200732526
S3151C000B502034F32510342EC017910100032181BEC9
S3151C000B60EFF0707CE30505EAEF00C11717B301002F
S3151C000B700323431D03210300824273901234D65271
S3151C000B80739002309240A2423243C2435244E24422
S3151C000B90724582551256A2563257C2575258E258BF
S3151C000BA072598649164AA64A364BC64B564CE64CD3
S3151C000BB0764D865D165EA65E365FC65F130181079F
S3151C000BC07300203013000000130000001300000007
S3151C000BD013000000130000001300000013000000A7
S3151C000BE01300000013000000130000001300000097
S3151C000BF01300000013000000130000001300000087
S3151C000C0017B1010003210114024182403243C24341
S3151C000C105244E244724582551256A2563257C25766
S3151C000C205258E25872598649164AA64A364BC64B42
S3151C000C30564CE64C764D865D165EA65E365FC65FE6
S3151C000C40D652A10273900230A24213018107828000
S3151C000C501300000013000000130000001300000026
S3151C000C601300000013000000130000001300000016
S3151C000C701300000013000000130000001300000006
S3151C000C8013000000130000001300000013000000F6
S3151C000C9013000000130000001300000013000000E6
S3151C000CA013000000130000001300000013000000D6
S3151C000CB013000000130000001300000013000000C6
S3151C000CC013000000130000001300000013000000B6
S3151C000CD013000000130000001300000013000000A6
S3151C000CE01300000013000000130000001300000096
S3151C000CF01300000013000000130000001300000086
S3151C000D00F322003093F272FF130380181203B3E22E
S3151C000D106200711523205500130585FA10C1211593
S3151C000D2023200500814263870200711523200500DC
S3151C000D30FD12D5BF71150CC1828000000000000099
S3151C000D400000000000000000000000000000000081
S3151C000D500000000000000000000000000000000071
S3151C000D600000000000000000000000000000000061
S3151C000D700000000000000000000000000000000051
S3151C000D800000000000000000000000000000C16719
S3151C000D906376F50213370510134717000E07B7972E
S3151C000DA0011C3355E500938747D3AA9703C5070053
S3151C000DB093060002998E3385A6408280B7070001F0
S3151C000DC06370F5024147B797011C3355E5009387BD
S3151C000DD047D3AA9703C50700C1463385A640828020
S3151C000DE06147B797011C3355E500938747D3AA97EC
S3151C000DF003C50700A1463385A64082802A86014585
S3151C000E0093F6150091C2329585810606F5F9828006
S3151C000E1000000000634E050263C305042E86AA85E6
S3151C000E207D5515C285466378B6006356C000060616
S3151C000E308606E36CB6FE014563E4C500918D558DAF
S3151C000E4085820582F5FA82808682C93F2E8582823A
S3151C000E503305A0406347B000B305B040C1B7B30526
S3151C000E60B0408682653F3305A0408282868263C776
S3151C000E700500634905005D372E858282B305B040A7
S3151C000E80E35B05FE3305A040513F3305B04082822B
S3151C000E9000004111194506C6EF2040050545EFD057
S3151C000EA000714111B687179701000327A7093288DD
S3151C000EB006C68328C7003E86AA862E87978701000A
S3151C000EC0938787F763090800978501009385C5F703
S3151C000ED0468545287D3F978701009387A7F63E8860
S3151C000EE0E5B74111B286014606C6653F41118145EB
S3151C000EF022C406C62A84EF20806697B7010083A702
S3151C000F0027DF91C382972285EFD0606A97970100ED
S3151C000F1083A7470323ACA70823AE07088280411189
S3151C000F2022C49797010093876782179401000324B4
S3151C000F306401032584098325C4099043D44306C64A
S3151C000F40EFD0C05D9307150033B5A700AA95B24034
S3151C000F50232CF408232EB40822441395150005816E
S3151C000F604101828039711303C10236D69A8606CE98
S3151C000F703AD83EDA42DC46DE1AC6E928F24021613E
S3151C000F80828039711303810232D436D62E869A8614
S3151C000F90AA85179501000325E5FA06CE3AD83EDA4E
S3151C000FA042DC46DE1AC67D20F24021618280F85161
S3151C000FB0797189675AC806D622D426D24AD04ECE13
S3151C000FC052CC56CA5EC662C4F98F328BB5CB1C4650
S3151C000FD0832B06002E89AA89FD5AADC303AC4B0090
S3151C000FE003A40B00135A2C0063020A04814421A09B
S3151C000FF01104630B9A020C404A864E85EF10B029E9
S3151C0010008504E31755FF7D55B250225423240B004B
S3151C00101023220B0092540259F249624AD24A424B8D
S3151C001020B24B224C4561828083278B00137CCCFFFC
S3151C001030B38787412324FB00A10BCDF30145E9B7F8
S3151C001040EF100037D1B7184611C395B723220600F7
S3151C00105001458280697123202113232E3111232CF3
S3151C00106041112324811123261112232481122322A8
S3151C0010709112232A5111232861112326711123222F
S3151C00108091112320A111EEDF2A8A2E89328CB68972
S3151C00109001C55C59E383074A8317C90013972701C7
S3151C0010A0634F0700032749068966D58FF976C20761
S3151C0010B0FD16C187758F2316F9002322E90613F73F
S3151C0010C0870079C30327090161C3E98B2947638913
S3151C0010D0E70CE400814B5E8DA6C082C482C22687C3
S3151C0010E002C202CE02D002D2178B0100130B0BECEC
S3151C0010F04144978A0100938A2A03E28B4E8383C755
S3151C0011000B00638C0726DE8C93065002638DD72852
S3151C00111083C71C00850CFDFBB3897C41638F7C2532
S3151C001120A646964723207701CE96850723223701AC
S3151C001130B6C4BEC21D462107635CF600E3860618CC
S3151C0011409000CA8552851AC49D35224355E52687CB
S3151C00115083C70C004E9D638207228146014803C645
S3151C0011601C00938B1C00A30D0102FD5C9309A005BA
S3151C001170428CB68D850B930706FE63E8F90E8A072B
S3151C001180DA979C43DA978287CA855285EF100079D5
S3151C001190E31205488317C9002947E98BE39BE7F24D
S3151C0011A08317E900E3C707F2032481128320C112C7
S3151C0011B083244112832A4111032B0111832BC11055
S3151C0011C0832C4110032D0110FE5DCE866286832979
S3151C0011D0C111032C8110CA85528503290112032AC9
S3151C0011E0811155616F00B0469000CA8552851AC49C
S3151C0011F07D3B2243630D0516EA8B8357C90093F783
S3151C0012000704E39907408320C11203248112832417
S3151C0012104112032901128329C111032A8111832A30
S3151C0012204111032B0111032C8110832C4110032D1A
S3151C0012300110FE5D5E85832BC11055618280814D38
S3151C001240930706FD254503C60B0093952D00B38613
S3151C001250B5018606B38DD700930706FD850BE3748F
S3151C001260F5FE930706FEE3FCF9F06288EE8663063C
S3151C00127006102306C108A30D010285498548130CD7
S3151C001280C108814C937F280063830F008909164689
S3151C00129093724808A64793051600AE8E6396020005
S3151C0012A0B38D36416341B0758345B10399CD1306A1
S3151C0012B0B103850710C3054650C3BEC4F6C21D46FE
S3151C0012C0634ED66976862107850E63830F047018D4
S3151C0012D0890710C3094650C3BEC4F6C21D466351D6
S3151C0012E0D66DE38907049000CA8552851ACC36CA86
S3151C0012F042C846C616C46539E31005F01646A6470D
S3151C0013006243D2464248B248A2422687930E160032
S3151C001310930500086381B24EB38C1C416344905BF9
S3151C001320C6972320870123221701BEC4F6C21D4679
S3151C001330635DD64BC1C39000CA8552851AC836C692
S3151C00134042C4B531E31A05EAA6474243B2462248CF
S3151C00135026871378480063060800338C364163459C
S3151C001360800763D33601CE86369DE39F07E683C787
S3151C0013700B0082C22687E39807D8A647EA8BE38E22
S3151C00138007E69000CA8552851D3185BD832D030055
S3151C001390110363CF0D1603C60B00E9BB03C60B0076
S3151C0013A0136C0C02C1BBB3897C41E39B7CD783C7FE
S3151C0013B00C0055B382C213784800630C086C338C3E
S3151C0013C036416358806D268741469645E35C8623E5
S3151C0013D0978E0100938E4ED44EC65EC8E289C14CD0
S3151C0013E09D4D36C41A8CF68B01A813852500210742
S3151C0013F0B685C11963DD3C03C107938615002320FE
S3151C001400770123229701BEC4B6C2E3D0DDFE6380FA
S3151C001410073E9000CA855285593EE31F05DC96455A
S3151C001420C119A647268713851500E3C73CFD6283B1
S3151C001430DE8E4E8CA246B249C24BE2972320D701C0
S3151C00144023228701BEC4AAC21D47E35CA7F06382A0
S3151C00145007649000CA8552851AC636C4893EE31DA8
S3151C00146005D8A6473243A246EDBD6288032C03006D
S3151C001470A30D0102EE86930D4300E3090C0EFD57E6
S3151C0014803AC836C642C4E38FFC026686814562852D
S3151C001490EF1020672248B2464247E3090514B308F9
S3151C0014A0854193C9F8FF93D9F941B3F938016E8385
S3151C0014B0814C1DA2832703006288EE86A30D0102C0
S3151C0014C011032306F10885498548130CC10855BB31
S3151C0014D0628893770802EE86638B071E1D031373BF
S3151C0014E083FF03264300832903002103B28D634235
S3151C0014F0060A7D566380CC0C33E6B9011378F8F7DF
S3151C00150055EAE3910C0E81498148130C010FE9A0A1
S3151C001510B30DB04103C60B00136C4C00A1B9930765
S3151C001520B00203C60B00A30DF102A9B103C60B0042
S3151C00153093078006E307F600136C0C0425B9EE86A8
S3151C00154093680C0193F70802638D07581D031373E8
S3151C00155083FF83290300832D43002103A30D01026E
S3151C0015607D5646886388CC0433E6B90113F8F8F730
S3151C001570854729E263990C0AD9F793F81800638703
S3151C001580086893070003A307F10EC689130CF10E16
S3151C001590A1A09305D00233363001B30EB041A30D82
S3151C0015A0B102FD55B38DCE40B30930416384BC00F6
S3151C0015B01378F8F763910D5C2546636E365B93874B
S3151C0015C0090393F7F70FA307F10EE689634390010E
S3151C0015D085498548130CF10E8347B103B337F000D8
S3151C0015E0BE994DB1617613460683231EC10217862A
S3151C0015F001001306E69983270300EE86014513684E
S3151C0016002C00110332C2A30D01027D566382CC3A13
S3151C00161033E6A7009375F8F763180638C28889471E
S3151C0016202E88E38B0CF40546638EC77A0946638BBA
S3151C001630C77481470145130C010F9315D50113F689
S3151C00164077008D8313060603CD8F0D81A30FCCFE69
S3151C001650B3E5A700E2887D1CEDF193771800638C37
S3151C0016600736930500036308B6369387E8FF90197F
S3151C001670B308F640A30FBCFEC68963C2985D3E8CB8
S3151C001680A1BF93770C02639D075893770C0163984F
S3151C001690076C93770C046390077413780C20630013
S3151C0016A0086C8327030011032380A70189BC03C68A
S3151C0016B00B009307C006630DF668136C0C015DBC2A
S3151C0016C013680C0193770802EE86E39907E01376FC
S3151C0016D008018327030011036310064013760804D0
S3151C0016E06308063E9399070193D9094193DDF94195
S3151C0016F06E86F5BBEE8613660C019377060263882D
S3151C00170007401D03137383FF832703000325430030
S3151C0017102103A30D0102FD551378F6BFE38DBCF022
S3151C001720B3E5A7001376F6B763940560C2888147B4
S3151C001730328889B552851AC63AC4EF10B0205C416E
S3151C0017403E853ED2EF109049AA8752853ED0EF10B7
S3151C001750701F1845825732433ACE2247E38D07C283
S3151C001760F24703C60B00E38707A083C70700E38382
S3151C00177007A0136C0C40FDBA03C60B00136C0C08B7
S3151C001780D5BA03C60B009307A00293851B00630CF6
S3151C001790F668930706FDA548AE8B814C2545E3EC00
S3151C0017A0F89C03C60B0093952C00AE9C860CBE9C25
S3151C0017B0930706FD850BE376F5FE75BA03C60B008B
S3151C0017C0136C1C0045BA8347B10303C60B00E39395
S3151C0017D0079A93070002A30DF10269BA0547BAC21C
S3151C0017E0C687E2C6C6C8C6C4268721079DB6054558
S3151C0017F081452687FDBEB38D3641E35FB0B1C14539
S3151C00180063DDB561178F0100130F0F924ECA5ECCB4
S3151C001810EE89C14E9D4F46C442C636C89A8DFA8B78
S3151C00182001A81305260021073686C11963D03E057B
S3151C001830C10793061600232077012322D701BEC4B5
S3151C001840B6C2E3D0DFFE638707109000CA855285B7
S3151C001850EFF0EFF5E312059A1646C14EC119A647DD
S3151C0018602687130516009D4FE3C43EFD6E835E8FCF
S3151C001870CE8DA2483248C246D249E24BEE9723206F
S3151C001880E7012322B701BEC4AAC21D466354A6386B
S3151C001890638D074E9000CA8552851ACA36C842C641
S3151C0018A046C4EFF0CFF0E3190594A2481646A647A6
S3151C0018B0B38C1C415243C24632482687930E1600EF
S3151C0018C0E35090A7178F0100130F0F8663539407DD
S3151C0018D04ECA9D4DE68946C442C636C81ACCD68C1D
S3151C0018E001A8930E260021073686C119635C3403B2
S3151C0018F0C107930616002320570140C3BEC4B6C2B7
S3151C001900E3D1DDFEA1C79000CA855285EFF02FEA10
S3151C001910E314058E1646C119A6472687930E160094
S3151C001920E34834FD668FA248CE8C3248C2466243D9
S3151C001930D249E6972320E70123229701BEC4F6C2AB
S3151C0019401D46634DD6152107850ED9BA854E01460F
S3151C001950268761BF054501462687C1BD95CB9000EC
S3151C001960CA8552851AD436CC42CA46C816C67EC407
S3151C001970EFF0EFE3E31205881646A6472253E2462C
S3151C0019805248C248B242A24F2687930E160035BA59
S3151C00199063820F2A7C18BEC68947BEC8854E268719
S3151C0019A076862107850EADB209462E88E30506C844
S3151C0019B09248130C010F13F6F70046968345060052
S3151C0019C091831316C501D18F1181A30FBCFE33E67B
S3151C0019D0A7007D1C6DF29C19B3888741C689E3DD7F
S3151C0019E098BFE689D5BE41456358B541977E01002F
S3151C0019F0938E8E724ED45ED6EE89414F9D437EC425
S3151C001A0016C646C842CA36CC9A8DF68B11A8130543
S3151C001A10260021072E86C119635F3F039305160016
S3151C001A20C107232077012322E701BEC4AEC2E3D03F
S3151C001A30B3FEA1CF9000CA855285EFF04FD7631D28
S3151C001A4005FA1646414FC119A647268713051600E7
S3151C001A509D43E3453FFD6E83DE8ECE8DA24FB24283
S3151C001A60C2485248E246A259B25BEE972320D701E0
S3151C001A702322B701BEC4AAC21D466342A60C210777
S3151C001A80930E15002A866FF03F8201460545268770
S3151C001A9059B763D33601CE86369DD1B8E38007D4B9
S3151C001AA09000CA8552851ACA36C842C646C4EFF08B
S3151C001AB00FD0631305F4964EA6475243C2463248CE
S3151C001AC0A2482687850EA9B882C226876FF04FE8E2
S3151C001AD0137608206318062E93DDF741BE896E86A1
S3151C001AE039B413F6080183270300110311EE13F60C
S3151C001AF0080419C69399070193D90901814DB9BCEC
S3151C001B0013F60820631B062ABE89814D81BC93757A
S3151C001B10060183270300110381ED9375060489C50D
S3151C001B20C207C1830145F5B6937506206393052844
S3151C001B300145C5B6854E014626876FF06FFD63834A
S3151C001B40071A9000CA8552851AD436CC42CA46C892
S3151C001B5016C67EC4EFF0AFC5631005EA1646A64747
S3151C001B602253E2465248C248B242A24F2687930EDF
S3151C001B7016006FF06FF3130C010F937708400146A4
S3151C001B8066C86ACC52D442C4628A36C65E8C3ACACD
S3151C001B90CA8BB28C72493E8D1AD619A82946814623
S3151C001BA04E85EE85EF70105263860D1EAA89AE8D8A
S3151C001BB0294681464E85EE85EF80C0181305050320
S3151C001BC0A30FAAFE850C7D1AE30A0DFC0347090028
S3151C001BD0E31697FD9307F00FE382FCFC63900D124E
S3151C001BE02547636D3711C24C4ACE9C195E89E28B20
S3151C001BF0528CB38887412248B2465247624D225ABC
S3151C001C003253C689E3DA989DE689F9B28149130CE9
S3151C001C10010FD9B22107930E15002A866FF0CFEF5C
S3151C001C20832703009356FD41110323A0A701D4C3A8
S3151C001C306FF0EFCC0146854E26876FF06FEDE68977
S3151C001C403E8C59BAEE86E288F5B8977701009387E1
S3151C001C50E73262883EC293770802EE86B9C71D0337
S3151C001C60137383FF83270300032543002103937506
S3151C001C70180081CDB3E5A70089C993050003230E7F
S3151C001C80B102A30EC102136828001378F8BFA5BAC7
S3151C001C90EE8662869DB4977701009387672F6288CC
S3151C001CA03EC293770802EE86DDFB937508018327F7
S3151C001CB003001103A5ED93750804B5C5C207C183BE
S3151C001CC0014575B76285EF1060719349F5FF93D98D
S3151C001CD0F9412248B2464247AA88B37935016E8338
S3151C001CE0814CDDB80347B10345CF9307B103BEC68C
S3151C001CF08547BEC8854E26876FF0CFDC8257925526
S3151C001D00814C330AFA403E865285EF001076034713
S3151C001D101900294681463337E0004E85EE853A99EF
S3151C001D20EF70503A61B593750820C1E1014581B742
S3151C001D3032880146E3010690A5B9EF00E0626FF018
S3151C001D40AFB503C61B00136C0C20850B6FF08FC23E
S3151C001D5003C61B00136C0C02850B6FF0AFC18327E7
S3151C001D600300110323A0A7016FF06FB99947E688FA
S3151C001D7063E69703C6896E83177C0100130C8C22BD
S3151C001D806FF02FD08147014525B1854E0146268728
S3151C001D906FF08FD82547E36B37E1B1B59948D9BFAA
S3151C001DA00146854E26876FF04FD293F7F70F0145F4
S3151C001DB07DBD93F7F70F0145A9BA93F9F70F814D2E
S3151C001DC06FF0CFF99399870193D9894193DDF94136
S3151C001DD06E866FF0CFF18327030011032390A701B2
S3151C001DE06FF0EFB1930700036FF0EFFDE689E6880D
S3151C001DF06E83814C6FF04FFE2E85977E0100938E6D
S3151C001E00AE31A5B113851500977E0100938ECE3099
S3151C001E106FF0AFE2FD5B6FF00FBF7685177F010099
S3151C001E20130F8F30A1BC832C0300110363D30C004A
S3151C001E30FD5C03C61B00AE8B6FF0CFB3B2862E863D
S3151C001E40AA85178501000325E50F6FF0AFA08397C0
S3151C001E50C50003D7E50003A34506F59BC20783A867
S3151C001E60C50103A845024207C183130101B8D98FD6
S3151C001E70232C8146130700403ECA2E849C182C0036
S3151C001E80232A914623282147232E11462A899AD68E
S3151C001E9046D242D63EC43ECC3AC83ACE02D0EFF029
S3151C001EA06F9BAA84635905028357410193F7070464
S3151C001EB099C78357C40093E707042316F4008320AD
S3151C001EC0C1470324814703290147268583244147AB
S3151C001ED01301014882802C004A85692271D5FD5464
S3151C001EE0E1B78397C500011122CC4EC606CE26CA81
S3151C001EF04AC813F787002E84AA8969E30567130766
S3151C001F000780D4415D8F2396E5006354D0100328C7
S3151C001F108402630D0808B18383A40900858B23A062
S3151C001F2009004C4CE5EF014685464E850298FD5747
S3151C001F302A866308F5100317C400032884024C4C38
S3151C001F40118B19C758401C58198E99C35C5C1D8E81
S3151C001F5081464E850298FD576314F50C83A609002D
S3151C001F60F54763EAD7083707C0DF79173357D740D9
S3151C001F70058B8317C40051E310487D771307F77F41
S3151C001F807D8FB1832316E4002322040010C0858BA9
S3151C001F90F9E70C5823A0990091C99307040463859B
S3151C001FA0F5004E85EF108075232804020145F2408A
S3151C001FB06244D2444249B2490561828003A90501A3
S3151C001FC0E30609FE84418D8B23A02501B38424419D
S3151C001FD0014791E3D84918C463469000C1BF2A99AA
S3151C001FE0E35690FC5C504C4CA6864A864E858297DE
S3151C001FF0898CE346A0FE8317C40093E70704F240CE
S3151C0020002316F4006244D2444249B2497D55056107
S3151C0020108280D45DE34DD0EE014551BF30480DB7EB
S3151C0020208317C40014487D771307F77F7D8FB18310
S3151C0020302316E4002322040014C0858BB9DB28C8B0
S3151C00204089BF83A70900E38807EE75476385E70008
S3151C0020505947E392E7FA23A09900014589BF95FAEF
S3151C00206028C805BF011122CC06CE2A8419C15C5989
S3151C00207091CF8397C50091E7F24062440145056103
S3151C002080828022856244F2400561A1BD2EC6E92CE0
S3151C002090B245C5B70DCDAA8517850100032585EA6E
S3151C0020A019C15C5999C78397C50099E3014582807C
S3151C0020B00DBD01112EC62AC406CE7D24B24522456D
S3151C0020C08397C50095E3F24001450561828017762A
S3151C0020D0010013062679970500009385E5F81785F8
S3151C0020E001001305A58FD5A3F2400561DDBB014593
S3151C0020F08280177601001306E676975500009385B5
S3151C002100E5C3178501001305658DC1A34C4141111B
S3151C00211022C406C6978701009387C7E42A84638472
S3151C002120F500EF4070410C4497870100938707EA3E
S3151C0021306385F5002285EF4030404C4497870100AB
S3151C002140938747EF6388F50022852244B2404101FC
S3151C0021506F40903EB24022444101828001458280FC
S3151C002160011197070000938707F906CE22CC26CAD1
S3151C00217017840100130404DF4AC84EC652C417A7AD
S3151C00218001002327F7B691475CC4214681452320CD
S3151C00219004002322040023240400232204062328EB
S3151C0021A00400232A0400232C0400178501001305B0
S3151C0021B025E1EF500121C167170A0000130A4A588E
S3151C0021C0970900009389895B170900001309496068
S3151C0021D09704000093846464A507232044032322E8
S3151C0021E034032324240344D47CD82146814540CC83
S3151C0021F02324040623260406232804062326040C6B
S3151C002200232C0406232E040623200408178501000C
S3151C002210130585E1EF50E11A97870100938707DBC9
S3151C0022202322F408B7070200C907232444092326DE
S3151C002230340923282409232A9408232EF40C232842
S3151C002240040C232A040C232C040C232A04122320FA
S3151C002250040E2322040E2324040E214681451385D5
S3151C002260C194EF500116978701009387A7DC23289A
S3151C002270440F232A340F232C240F232E940EF240B2
S3151C0022802326F40E6244D2444249B249224A0561CD
S3151C002290828001114EC606CE22CC26CA4AC897A7F2
S3151C0022A0010083A7E7A4AA89C5CB177901001309E6
S3151C0022B0695BFD548327490003248900FD1763D7F6
S3151C0022C0070085A013048406638D97040317C400B6
S3151C0022D0FD176DFBC17785075CC4232204062320EA
S3151C0022E00400232404002322040023280400232A98
S3151C0022F00400232C0400214681451305C405EF5018
S3151C002300410C23280402232A040223220404232426
S3151C0023100404F24022856244D2444249B249056112
S3151C00232082800324090019C0228969B79305C01A43
S3151C0023304E85EF10E05F2A8415C131059147232095
S3151C00234004005CC008C41306001A8145EF506107DF
S3151C002350232089002289B9BF213581BF232009008A
S3151C002360B14723A0F90075B75C5991C382809707C2
S3151C00237000009387E7D95CD997A7010083A74797E5
S3151C002380F5F7F9BB82808280177601001306864D0D
S3151C002390970500009385E5D5014505AE1776010026
S3151C0023A01306464C97050000938585DB014531AE27
S3151C0023B01C46638E07208396C500797122D452CCA5
S3151C0023C05AC806D626D24AD04ECE56CA5EC662C455
S3151C0023D066C293F78600328B2A8A2E84ADC39C492B
S3151C0023E0B9CF93F7260083240B00B5C75C504C4C21
S3151C0023F0B70A00808149014993CA0AC04E86528594
S3151C00240063090902CA8663F32A01D6868297635832
S3151C002410A01A83278B00AA993309A940898F2324E4
S3151C002420FB00638C07165C504C4C4E865285E31B96
S3151C00243009FC83A9040003A94400A104C1B7A28511
S3151C0024405285E929631305188316C40083240B00DF
S3151C00245093F72600C1FF93F71600EDE31C401844C2
S3151C002460B70A0080814B814993CAFAFF3E853A8C94
S3151C0024706380090C13F60620630A0618BA8C63EAF5
S3151C002480E91E13F7064825CB50480C4813171600AF
S3151C00249032973389B740135CF7013A9C93071900AE
S3151C0024A0135C1C40CE9762866374FC003E8C3E8691
S3151C0024B093F60640638F061CB2855285EF10404783
S3151C0024C0AA8C630E051E0C484A86EF40316A835758
S3151C0024D0C40093F7F7B793E707082316F400338570
S3151C0024E02C01B3072C4123289401232A840108C0FC
S3151C0024F04E8C1CC4CE8C6686DE85EF00106118449B
S3151C0025001C404E8933078741E69718C41CC0814975
S3151C00251083278B00CA9BB38727412324FB00B5CF97
S3151C0025201C4018448316C4003E853A8CE39409F477
S3151C00253083AB040083A94400A1040DBF814A014555
S3151C002540014C81496387090849CDD687CE8B63F335
S3151C0025503701BE8B08401C4803298400544863F588
S3151C002560A70036996348790963C8DB105C504C4C4C
S3151C0025706286528582972A896353A004B38A2A41AC
S3151C0025800545638A0A0283278B004A9CB389294125
S3151C002590B38727412324FB00D5F70145B2502254AB
S3151C0025A092540259F249624AD24A424BB24B224CCD
S3151C0025B0924C45618280A28552856D3469D58317FC
S3151C0025C0C40093E707042316F4007D55C1BF0145DB
S3151C0025D0828083A94400A687A104E38C09FE03AC70
S3151C0025E007004E86A9456285292B71C50505B30AC8
S3151C0025F08541A1BFE2854A86EF0030511C40A28569
S3151C0026005285CA971CC0B93C35D955BF144863E9D5
S3151C002610F6024C4863E6B9024E8963F33A015689C1
S3151C0026204A85EFE0BF845C504C4CB306A9405E86DD
S3151C002630528582972A89E354A0F8B3892941C9BDDA
S3151C0026403A8963F3E9004E893E854A86DE85EF00AA
S3151C002650D04B18441C4033072741CA9718C41CC0CA
S3151C00266069FFA2855285EFF0FF9F31F9B389294195
S3151C00267045B54E8CCE8C41B55E86E285EF00F048A2
S3151C00268018441C405E8933077741DE9718C41CC06A
S3151C002690F5B55285EF204051AA8CE31205E40C488F
S3151C0026A05285EF10A0058317C40031472320EA008A
S3151C0026B093F7F7F739B793871900BE8A41BD31479F
S3151C0026C08317C4002320EA00EDBD79714AD04ECE93
S3151C0026D052CC56CA5AC85EC606D622D426D22A8BD5
S3151C0026E0AE8BB28A014A85497D5983A44A0003A44C
S3151C0026F08A00FD1463C404028357C400FD1463FBE3
S3151C002700F9008317E400A2855A8563852701829BFD
S3151C002710336AAA0013048406E39024FF83AA0A00E2
S3151C002720E3950AFCB250225492540259F249D24AF9
S3151C002730424BB24B5285624A45618280411122C48A
S3151C0027402E848395E50006C6EF00D02F634905004D
S3151C0027503C48B240AA973CC8224441018280835718
S3151C002760C4007D777D17F98FB2402316F4002244EE
S3151C00277041018280014582808397C500011122CCCC
S3151C00278026CA4AC84EC606CE13F707102E84AA843C
S3151C0027903289B6891DE37D777D17F98F8315E40091
S3151C0027A02316F4006244F240CE864A86B249424958
S3151C0027B02685D24405616F00D0308395E500894695
S3151C0027C00146EF0050248317C400F1B7411122C4FF
S3151C0027D02E848395E50006C6EF00F022FD57630F95
S3151C0027E0F5008357C4000567B240D98FC207C1875D
S3151C0027F028C82316F4002244410182808357C40052
S3151C0028007D777D17F98FC207C187B2402316F40066
S3151C0028102244410182808395E5006F00F0131971F3
S3151C002820A2DC86DEA6DA177401000324A47163C435
S3151C002830050693078020231AF1002AC42ACC8DC9C9
S3151C0028409387F5FFFD542C0022853EC83ECE231BE4
S3151C0028509100EF20207F635595009307B0081CC09C
S3151C002860A24723800700F6506654D654096182801D
S3151C002870FD542C00228502C802CE231B9100EF209A
S3151C002880607C635595009307B0081CC0F6506654CF
S3151C002890D654096182809307B0081CC07D55FDB7CC
S3151C0028A01971A2DC86DEA6DAB2872A846343060681
S3151C0028B03686BA8613078020231AE1002EC42ECC36
S3151C0028C09DC7FD17FD542C003EC83ECE231B910010
S3151C0028D0EF204077635595009307B0081CC0A247AC
S3151C0028E023800700F6506654D65409618280FD5435
S3151C0028F02C0002C802CE231B9100EF20A074635546
S3151C00290095009307B0081CC0F6506654D65409614E
S3151C00291082809307B0081CC17D55FDB7411122C4A6
S3151C00292026C206C69777010083A7C761AA842E8490
S3151C00293099C3D85B5DC78317C40013F7870021C7EB
S3151C002940184831CF93F6170091CE5448232404001F
S3151C0029500145B306D04014CC11CFB2402244924458
S3151C0029604101828093F62700014691E2504810C42B
S3151C002970014565F713F707086DD393E7070423167C
S3151C002980F4007D55D9BF13F7070125C313F747007C
S3151C0029900DE7184893E787002316F40045F793F6CE
S3151C0029A0072813060020E38FC6F8A2852685EF406C
S3151C0029B0E0438317C400184871B70C5881CD130720
S3151C0029C004046387E5002685EF0050538317C40073
S3151C0029D023280402184893F7B7FD2322040018C0C5
S3151C0029E055BF3E85EFF05F98B9B7254798C093E76A
S3151C0029F0070471B7011122CC26CA4AC806CE2A89F9
S3151C002A00AE843284EF00E06D8547631BF500938727
S3151C002A10F4FF1307E00F6365F7002306910021A856
S3151C002A209306C40526866C004A85EF208057FD5701
S3151C002A30630BF50405C51C448345C100FD171CC466
S3151C002A4063D80700184C63C2E702A947638FF500D9
S3151C002A501C401387170018C02380B700F24062443D
S3151C002A6042492685D2440561828022864A85EF40EA
S3151C002A706050FD57E314F5FE7D55F2406244D24486
S3151C002A804249056182808357C4007D5593E707043C
S3151C002A902316F400DDB78317C60013972701634A74
S3151C002AA0070078528966D58F8966558F2316F600DE
S3151C002AB078D289B7011122CC06CE177401000324E3
S3151C002AC064482E86AA8519C05C5885C78317C6001C
S3151C002AD013972701634A070078528966D58F896642
S3151C002AE0558F2316F60078D222856244F240056182
S3151C002AF011B72AC4228532C6EFF01F873246A2457B
S3151C002B00F1B79377350093F6F50F85C79307F6FF54
S3151C002B1019CE7D5601A805051377350001CFFD1783
S3151C002B206387C70003470500E317D7FE828001456C
S3151C002B308280B2870D476372F70493F5F50F1397DE
S3151C002B408500BA9513970501B708FFFE3788808064
S3151C002B50BA959388F8EF130808080D4329A0F117B6
S3151C002B601105637CF30018412D8F3306170113479B
S3151C002B70F7FF718F337707017DD33307F50089E79C
S3151C002B807DB70505E305E5FA83470500E39BD7FEFC
S3151C002B9082808D4763F3C702B367B5008D8B8D4664
S3151C002BA089CB9306F6FF29A871161105910563F6C4
S3151C002BB0C60018419C41E309F7FE9306F6FF0DC2B9
S3151C002BC08506AE9619A0638DD5008347050003C7FD
S3151C002BD0050005058505E388E7FE3385E740828009
S3151C002BE00145828035CEB367B5008D8BA9E38D4731
S3151C002BF063FFC7023703FFFEB78880801303F3EF1A
S3151C002C00938808080D4E01A8711639CAB1EB110537
S3151C002C109105637ECE0018419441B30767001348A3
S3151C002C20F7FFB3F70701B3F71701E30FD7FC83468A
S3151C002C30050003C805006317D80285476302F60220
S3151C002C402A8701A88346070003C80500639C060162
S3151C002C5081CB0507B307E640FD178505AA97FDF24C
S3151C002C6001458280338506418280B367B5008D8B12
S3151C002C702A87B9EB8D4763F9C7043703FFFEB7886C
S3151C002C8080801303F3EF938808080D4E39A014C3F4
S3151C002C907116110791056379CE029441B3876600BC
S3151C002CA013C8F6FFB3F70701B3F71701EDD3850574
S3151C002CB09307170011CE83C6F5FF1308F6FFA38FE3
S3151C002CC0D7FE81CA3E87428685059307170065F69F
S3151C002CD082803297630808008507A38F07FEE39D51
S3151C002CE0E7FE82808280177601000326A62585468C
S3151C002CF01306060509A039C50348050093081500E7
S3151C002D00AE8719A06309E80203C7070085077DFB88
S3151C002D10630E080283C60800AE87850811A07DDBFA
S3151C002D2003C707008507E39CE6FE89CAA38F08FE36
S3151C002D3023201601828099CE46857DBF814823209B
S3151C002D401601828008424DF9014582802320060027
S3151C002D5001458280232016012300050082808546BA
S3151C002D6059BF8327851199C301458280411193055B
S3151C002D70000822C406C62A84EF00903B232CA4100C
S3151C002D8009CD93070508232005001105E31DF5FE53
S3151C002D900145B2402244410182807D55DDBF0111AF
S3151C002DA026CA06CE22CCFD47AA8463EFB70083272A
S3151C002DB085112E8491CF0A04A297884390C3F240B2
S3151C002DC06244D24405618280D9471CC17D55C5BF6A
S3151C002DD09305000832C6EF00B03523ACA41032466A
S3151C002DE0AA872A879306050875D123200700110791
S3151C002DF0E31DD7FEC9B7411126C206C622C4FD472C
S3151C002E00AA8463EDB704832785112E8495C713976F
S3151C002E102500BA9798430DC385466309D700FD560E
S3151C002E206306D70223A007002E8502970145B240F0
S3151C002E3022449244410182802685512122862244C5
S3151C002E40B240AA8526859244410125A9B240224456
S3151C002E50D9471CC19244054541018280D9471CC1F2
S3151C002E607D55F1B7FD4763E1B708832785114111ED
S3151C002E7022C426C206C62E84AA84A1C71317240000
S3151C002E80BA9798430DC3FD56630BD702854663025A
S3151C002E90D702228523A0070002970145B24022448F
S3151C002EA0924441018280B24022449244054541012C
S3151C002EB08280B240224492440D45410182800945DC
S3151C002EC0F1BF93050008EF00B02623ACA410AA8717
S3151C002ED011C92A8793060508232007001107E39DBD
S3151C002EE0E6FE69BF7D555DBF7D558280411126C2B8
S3151C002EF006C622C4FD479774010083A4A40463EC90
S3151C002F00A70483A784112A848DC713172500BA9793
S3151C002F10984305C385466308D700FD566305D7024B
S3151C002F2023A0070002970145B24022449244410166
S3151C002F3082802685692622862244B240AA85268559
S3151C002F40924441013DAEB2402244D9479CC005453E
S3151C002F50924441018280D9479CC07D55F1B74111ED
S3151C002F604AC006C622C426C2FD471779010003299A
S3151C002F7069FD63E2A7022A8403258911AE840DC16B
S3151C002F800A04B3078500884384C3B2402244924492
S3151C002F90024941018280D9472320F9007D55F5B7A6
S3151C002FA0930500084A85EF00B018232CA910AA87A0
S3151C002FB01307050865D523A007009107E39DE7FEC7
S3151C002FC0C1B7411122C4177401000324A4F7832737
S3151C002FD0841106C691C70145B24022444101828034
S3151C002FE0930500082285EF00B014232CA41009C9F0
S3151C002FF093070508232005001105E31DF5FEE1BF17
S3151C0030007D55D9BF411126C206C622C4FD479774F9
S3151C003010010083A424F363EBA70683A784112A84E7
S3151C003020A1C713172400BA9798430DC3FD56630B0B
S3151C003030D70285466302D702228523A00700029782
S3151C0030400145B2402244924441018280B24022444E
S3151C0030509244054541018280B240224492440D456A
S3151C003060410182800945F1BF930500082685EF00C2
S3151C003070300C23ACA410AA8711C92A87930605080D
S3151C003080232007001107E39DE6FE61BF7D5555BF52
S3151C00309005C64111976501009385450A328522C4F0
S3151C0030A006C63284712E11ED176501001305C5087D
S3151C0030B0B240224441018280176501001305C507F1
S3151C0030C0828097650100938525072285952E69DDEB
S3151C0030D097650100938505D722859D2671D50145E7
S3151C0030E0C1BF177501000345258B828085C541111B
S3151C0030F022C42E842285976501009385250406C665
S3151C003100812611ED1765010013050503B240224403
S3151C00311041018280176501001305050282809765AF
S3151C0031200100938565012285212E69DD97650100C5
S3151C003130938545D12285292671D50145C1BF130525
S3151C003140050F82801775010013058581828017750E
S3151C00315001001305E5808280411122C42A842E8534
S3151C0031609797010023A807B806C6EFB08041FD5704
S3151C0031706306F500B2402244410182809797010004
S3151C00318083A747B7E5DBB2401CC0224441018280BD
S3151C0031909777010083A707DB6386A7066C4101119D
S3151C0031A026CA06CE22CC4AC84EC6AA849DC101494F
S3151C0031B093090008B3872501804319C4A2850040E2
S3151C0031C026852D2B65FCEC401109E31539FF268558
S3151C0031D035238C5C99C126851523EC4499C126851B
S3151C0031E0312BDC5889CB6244F2404249B2492685D0
S3151C0031F0D24405618287F2406244D2444249B249B4
S3151C00320005618280828041112E8722C4B2852A8460
S3151C00321036863A859797010023AE07AC06C6EFB0F3
S3151C0032208042FD576306F500B2402244410182806C
S3151C0032309797010083A707ACE5DBB2401CC022446C
S3151C0032404101828041112E8722C4B2852A8436868A
S3151C0032503A859797010023AF07A806C6EFB06041D1
S3151C003260FD576306F500B2402244410182809797C0
S3151C003270010083A727A8E5DBB2401CC022444101FC
S3151C003280828041112E8722C4B2852A843A8597975B
S3151C003290010023A107A606C6EFB0A039FD57630699
S3151C0032A0F500B2402244410182809797010083A712
S3151C0032B067A4E5DBB2401CC02244410182806FB08A
S3151C0032C0C03441112E8722C4B2852A8436863A859B
S3151C0032D09797010023A007A206C6EFB08041FD57B1
S3151C0032E06306F500B2402244410182809797010093
S3151C0032F083A747A0E5DBB2401CC022444101828063
S3151C00330017750100032505C4828063F2A502338765
S3151C003310C500637EE500B307C5001DCA8346F7FFDB
S3151C003320FD177D172380D700E31AF5FE8280BD4763
S3151C00333063E1C702AA879306F6FF51CE8506BE96A1
S3151C00334003C7050085078505A38FE7FEE39AD7FE0D
S3151C0033508280B367B5008D8BBDEB930806FF93F88F
S3151C00336008FFC108B3071501AE862A8703A8060005
S3151C003370C1064107232807FF03A846FF232A07FF88
S3151C00338003A886FF232C07FF03A8C6FF232E07FFCF
S3151C003390E31EF7FC1377C600C6951378F6000DCF0F
S3151C0033A0AE863E87B38E07010D4E03A3060011079A
S3151C0033B0B388EE40232E67FE9106E3681EFF1307B3
S3151C0033C0C8FF719B11070D8ABA97BA95ADB79306BC
S3151C0033D0F6FFAA87A5B782804286B1BF93773500D0
S3151C0033E02A879DEFB7867F7F9386F6F7FD55104398
S3151C0033F01107B377D600B697D18FD58FE389B7FE61
S3151C0034008346C7FFB307A7408DCA8346D7FF9DC215
S3151C0034100345E7FF3335A0003E9579158280F9D226
S3151C00342083470700050793763700F5FB098F1305BD
S3151C003430F7FF82801385D7FF82801385C7FF8280A2
S3151C0034403367B500FD530D8B79E7B7877F7F93876D
S3151C003450F7F710419441B372F6003363F600BE923F
S3151C003460B3E262006397720C6318D6065041D441CE
S3151C003470B372F6003363F600BE92B3E26200639841
S3151C003480720A631BD60410459445B372F600336367
S3151C003490F600BE92B3E262006391720A631ED60204
S3151C0034A05045D445B372F6003363F600BE92B3E2C0
S3151C0034B06200639A72086311D60210499449B3726A
S3151C0034C0F6003363F600BE92B3E2620063937208A1
S3151C0034D05105D105E30FD6F613170601939706017E
S3151C0034E0631CF7001357060193D706013305F740F3
S3151C0034F09375F50F91E982804183C1833305F740AB
S3151C0035009375F50F91E182801377F70F93F7F70FF9
S3151C0035103305F74082800346050083C60500050572
S3151C00352085056313D60065FA3305D64082801105DE
S3151C0035309105E312D6FE014582802105A105E31CF7
S3151C003540D6FC014582803105B105E316D6FC014542
S3151C00355082804105C105E310D6FC01458280797144
S3151C00356052CC178A0100130A2A794AD003290A0069
S3151C00357006D622D426D24ECE56CA5AC85EC662C4B7
S3151C003580630809022A8BAE8B854AFD5983244900A0
S3151C0035901384F4FF634E04008A04CA9463860B02E8
S3151C0035A083A74410638277037D14F114E31834FF58
S3151C0035B0B250225492540259F249624AD24A424BA0
S3151C0035C0B24B224C4561828083274900D440FD17AB
S3151C0035D06382870423A20400E1DA832789183397C0
S3151C0035E08A00032C4900F98F89EF8296032749002C
S3151C0035F083270A0063148701E308F9FAD5DB3E89A1
S3151C00360071B78327C91883A544087D8F19E75A8586
S3151C0036108296E9BF23228900C1B72E858296F9B707
S3151C003620AA858146014601456F309042011122CC84
S3151C00363026CA4AC84EC652C4AE8906CE176A0100AF
S3151C003640130ACA4B2A89EF00500D03278A00856787
S3151C0036501384F7FE4443F198269433043441318095
S3151C0036607D143204634BF40081454A85EF30D02724
S3151C00367083278A00A697630EF5004A85EF00100A79
S3151C003680F2406244D2444249B249224A014505618C
S3151C0036908280B30580404A85EF301025FD576309AB
S3151C0036A0F502138781951C4383268A00818C93E43B
S3151C0036B01400818F4A85C4C21CC3EF003006F24039
S3151C0036C06244D2444249B249224A05450561828078
S3151C0036D081454A85EF30502103278A00BD46B30732
S3151C0036E0E540E3DCF6F89776010083A6E685158DA2
S3151C0036F093E7170023ACA1945CC341B7638D0510F7
S3151C003700411122C426C22E84AA8406C6EF00F000EC
S3151C0037108325C4FF130784FF176501001305053EA7
S3151C00372093F7E5FF3306F700544203288500F19A08
S3151C0037306305C81254C285893308D600BDE9032324
S3151C00374084FF83254800976801009388A83B3307AC
S3151C0037506740032887009A9785896304180F0323FB
S3151C003760C70023266800232403016384051293E6FD
S3151C003770170054C31CC29306F01F63E9F60493F6A4
S3151C00378087FFA1064C41AA96904213D8570085473D
S3151C003790B3970701CD8F938586FF4CC710C75CC1B5
S3151C0037A098C258C62244B2402685924441016F00F5
S3151C0037B0E076832548008589A5C193E61700232E4C
S3151C0037C0D4FE1CC29306F01FE3FBF6FA93D69700B1
S3151C0037D011466362D60C93D66700938596031386AF
S3151C0037E086038E05AA959441E1156396D500EDA036
S3151C0037F094466386D500D042719AE3EBC7FECC464D
S3151C0038004CC714C72244B24098C526859244D8C6D4
S3151C00381041016F00A0708280B6979768010093885B
S3151C003820682E1446638E16090328C60093E51700F6
S3151C0038303306F70023A606012324D8004CC31CC25A
S3151C0038401DBFF5E10C465046BE9693E71600D0C543
S3151C0038500CC65CC3369714C3B1B78589BE9689E975
S3151C003860832584FF0D8F5C471047AE965CC690C7B8
S3151C00387093E716005CC318C59767010083A7076DFD
S3151C003880E3E2F6F29785010083A5C5472685793BB9
S3151C00389011BFB69779B75146637ED600130640050D
S3151C0038A06366D60493D6C7009385F6061386E6068A
S3151C0038B08E050DBF9385C6051386B6058E051DB7E9
S3151C0038C058C918C993E61700232617012324170184
S3151C0038D054C33E971CC3F9B5032845000986854782
S3151C0038E0B397C700B3E707015CC119BF13064015A0
S3151C0038F0636AD60093D6F7009385860713867607E8
S3151C0039008E05CDB513064055636AD60093D627019E
S3151C0039109385D6071386C6078E05E9B59305803FA2
S3151C0039201306E007C1B593E6170054C31CC29DBD20
S3151C00393079714AD006D622D426D24ECE52CC56CA3D
S3151C0039405AC85EC662C466C29387B50059472A899F
S3151C003950636FF704C14763E0B718C123C144E1474D
S3151C00396089459769010093896919CE97C0431387C6
S3151C00397087FF6306E4245C4054441044F19BA297E1
S3151C003980D84354C690C6136717004A85D8C37923F3
S3151C00399013058400B250225492540259F249624AC9
S3151C0039A0D24A424BB24B224C924C4561828093F4D4
S3151C0039B087FF63C2071263E0B41285239307701F47
S3151C0039C063FE972A93D79400638C07101147636D87
S3151C0039D0F72293D7640093859703138587039396E1
S3151C0039E035009769010093896911CE96C042E1168C
S3151C0039F0638086023D4631A06350071C40446389A0
S3151C003A0086005C40F19B33879740E357E6FEAA8508
S3151C003A1003A40901976801009388C80E630D141747
S3151C003A205C40BD46F19B3387974063CEE62423AAB0
S3151C003A30190123A81901635907221307F01F03A5AF
S3151C003A4049006363F71813F787FF21074E97144342
S3151C003A5013D657008547B397C7005D8D930787FF1D
S3151C003A605CC414C423A2A90000C3C0C693D72540B6
S3151C003A7005463316F600636CC506B377A60081EFC0
S3151C003A800606F199B377A600910591E70606B3776A
S3151C003A90A6009105E5DF3D48139335004E931A8524
S3151C003AA05C452E8E6302F518D8433E84DC47719B19
S3151C003AB0B30697406341D818E3C606FE22975443C3
S3151C003AC010444A8593E6160054C35CC690C7B921B8
S3151C003AD013058400C1B5B1472320F90001455DBD1E
S3151C003AE093060020930500041305F003DDBD03A413
S3151C003AF089005C4013FBC7FF63679B0033079B4031
S3151C003B00BD4763CDE708976C0100938CEC4303A774
S3151C003B100C00978A010083AAEA1EFD57330A64012A
S3151C003B20A69A6303F72C8567BD07BE9AFD77B3FA81
S3151C003B30FA00D6854A85EF30205BFD57AA8B6304B5
S3151C003B40F51863604519138C819583250C00D69551
S3151C003B502320BC002E876314AA1E9317450163906D
S3151C003B60071E83AB8900B3075B0193E7170023A2EB
S3151C003B70FB00178701001307A718144363F3B6004D
S3151C003B800CC31787010013076717144363F3B600AA
S3151C003B900CC35E8425AA03A54900C9BD93E714007E
S3151C003BA05CC0A29423A49900136717004A85D8C049
S3151C003BB0B52613058400F9BB54441044C9B3C04749
S3151C003BC08905E38787E445BB13D79700914663F2C3
S3151C003BD0E60ED14663E4E6241306C7059306B7052D
S3151C003BE00E064E96184261166316E60001A4184787
S3151C003BF06306E6005443F19AE3EBD7FE504750C4E4
S3151C003C0018C400C640C79DB55147637DF70C130702
S3151C003C1040056361F72293D7C4009385F706138585
S3151C003C20E7069396350075BB050E93773E00210576
S3151C003C30F1C75C4585BD104493E514004CC05CC6B9
S3151C003C4090C7A29423AA990023A8990093E716006B
S3151C003C5023A6140123A41401DCC022974A8514C38D
S3151C003C60752C130584003DB3A297D8434A85136768
S3151C003C701700D8C365241305840029BB93D53400CB
S3151C003C8093878400F9B993E6140054C0A29423AA1E
S3151C003C90990023A899009366170023A6140123A450
S3151C003CA01401D4C0A2974A8598C38D2C1305840091
S3151C003CB0D5B113D7670013069703930687030E0621
S3151C003CC00DB76307340703A489005C40F19B338757
S3151C003CD0974063E59700BD47E3C2E7EC4A853D2C58
S3151C003CE001454DB99385C7051385B70593963500D0
S3151C003CF0CDB983278300FD156399671C93F735009F
S3151C003D006113E5FB03A749009347F6FFF98F23A22E
S3151C003D10F9000606E3EDC7DCE30B06DC3377F60099
S3151C003D2011E706063377F600110E65DFF285ADB393
S3151C003D30138C819503270C0056972320EC0083A631
S3151C003D400C00FD576385F610B3874B41BA972320A9
S3151C003D50FC0093FC7B0063830C0A0567B38B9B41B9
S3151C003D6093058700A10BB3859541DE9AB385554112
S3151C003D707D1733FAE500D2854A85EF30E036FD57CC
S3151C003D806307F51033057541B30A450103270C007B
S3151C003D9023A4790193E71A00B305EA002320BC008B
S3151C003DA023A2FB00E30734DDBD4663F5660B5840D2
S3151C003DB093074BFFE19B058B5D8F58C01546330758
S3151C003DC0F40050C310C763E5F60083A74B0055B338
S3151C003DD0930584004A85EFF07F9283AB8900832587
S3151C003DE00C0083A74B0071B3C10AA1B38986854712
S3151C003DF0B397D7005D8D23A2A90011B5B3855B01CE
S3151C003E00B305B040D20513DA4501D2854A85EF3099
S3151C003E10A02DFD57E318F5F6014A8DBF9306400504
S3151C003E2063EEE60213D7C7001306F7069306E706EA
S3151C003E300E0645BB13074015636EF70293D7F400B5
S3151C003E4093858707138577079396350059BE23A05C
S3151C003E507C0101B7854723A2FB0049B59306401593
S3151C003E6063EDE60213D7F700130687079306770759
S3151C003E700E0685BB13074055636DF70293D72401C5
S3151C003E809385D7071385C7079396350099BEE11C02
S3151C003E90E69AB38A7A41014AD5BD9306405563E139
S3151C003EA0E60213D727011306D7079306C7070E0684
S3151C003EB00DBB9306803F9305F0071305E00715B667
S3151C003EC01306803F9306E00729BB83A7490091B5DB
S3151C003ED09767010083A707A8828799C91DC695CA3B
S3151C003EE0834706009CC1034506003335A00082802B
S3151C003EF041116C0009CE85C2834706009CC103454F
S3151C003F0006003335A00041018280014582800145AF
S3151C003F10DDBF795582807955FDB7828082807C41D0
S3151C003F20411122C426C206C64AC02A84AE8495C341
S3151C003F3013972400BA9788431DC5184198C3232894
S3151C003F40050023260500B240224492440249410141
S3151C003F508280130610029145EF30403668C0AA874E
S3151C003F6061F90145CDB70549331999001306590066
S3151C003F700A0685452285EF30603465D544C1232465
S3151C003F80250175BF81C9D8417C410A07BA97984358
S3151C003F9098C18CC3828079714ECE83A9050162C4F7
S3151C003FA0416C22D426D24AD052CC56CA5AC806D6FE
S3151C003FB05EC62E8AAA8A3289368493844501014BB1
S3151C003FC07D1C83AB0400CA85910433F58B01EFC0BD
S3151C003FD0FFE22A94CA8513D50B01EFC03FE2935723
S3151C003FE004013E953374840193170501A29723AEF1
S3151C003FF0F4FE050B13540501E3453BFD09CC832751
S3151C0040008A0063D7F902938749008A07D297C0C3EF
S3151C004010850923283A01B250225492540259F24976
S3151C004020D24A424BB24B224C5285624A456182802F
S3151C00403083254A0056858505DD35AA841DCD0326B4
S3151C0040400A019305CA00310509060A06EF3001323A
S3151C00405003274A0083A74A040A07BA9798432320D2
S3151C004060EA0023A0470193874900268A8A07D2972C
S3151C004070C0C3850923283A0179BF97560100938648
S3151C004080A60C01469305A00B175501001305050D3B
S3151C004090EFC03FE1011122CC4AC82E842A89A545CE
S3151C0040A01385860026CA4EC652C406CE56C2B68490
S3151C0040B0B2893A8AEFC01FD6A54763D397088547AE
S3151C0040C0814586078505E3CEA7FE4A85893DAA85D7
S3151C0040D035C985471CC9232A4501A54763DF370512
S3151C0040E0930A9400330A34015684834604002946F5
S3151C0040F04A85938606FD45350504AA85E31744FFC4
S3151C004100138489FF569463D09902B3843441A294D4
S3151C0041108346040029464A85938606FDAD3D050463
S3151C004120AA85E39784FEF2406244D2444249B249CE
S3151C004130224A924A2E85056182802904A549E1B747
S3151C004140814561B797560100938606000146930583
S3151C004150300D1755010013056500EFC09FD4AA87C3
S3151C0041604167014563F4E700C20741453707000173
S3151C00417063F4E7002105A2073707001063F4E70084
S3151C004180110592073707004063E7E70093C7F7FF5F
S3151C004190FD833E9582808A0763C70700F98F91E7E6
S3151C0041A0130500028280090582800D0582801C4150
S3151C0041B02A8793F6770081CE93F61700014595EE74
S3151C0041C093F62700B5C685831CC305458280939646
S3151C0041D00701C1820145B9C693F6F70F95CE93F632
S3151C0041E0F7008DC693F6370081CE93F6170099E635
S3151C0041F08583050581E71305000282801CC3828026
S3151C004200898393F617000905F5FADDB7918393F6B2
S3151C00421037001105F9FAEDB7A18393F6F7002105CE
S3151C004220F1F2EDB7C18393F6F70F4145CDFAEDB721
S3151C00423089831CC3094582807C41411122C426C244
S3151C00424006C62A84AE8499CFC84331C11841D8C347
S3151C004250B2402244854744C9232605001CC9924402
S3151C00426041018280130610029145EF30200568C07B
S3151C004270AA8779F997560100938606ED01469305A0
S3151C004280501417550100130565EDEFC09FC171460B
S3151C00429085452285EF30800271DD85475CC18947E3
S3151C0042A01CC57DB75D714EDE62D48329060103AC45
S3151C0042B00501A2C452DC86C6A6C2CAC056DA5AD8A2
S3151C0042C05ED666D26AD06ECE2E8A328463473C0195
S3151C0042D04E872E84E289328A3A8C1C444C40B38B1E
S3151C0042E08901B3A77701BE951D392AC66300051837
S3151C0042F0B247939A2B00138B4701DA9ADA876377B6
S3151C0043005B0123A007009107E3ED57FF510A0A0C36
S3151C0043109307440133078A018A093EC43AC0BE99F1
S3151C0043206372EA101147930754013AC263F9F912F2
S3151C00433041647D1411A813590901631F090682479C
S3151C004340110A110B6370FA0E03290A00B374890053
S3151C004350FDD0A24C5A8D014C83AD0C0003290D00D7
S3151C004360A68533F58D00EFC07FA9337789002A9780
S3151C004370A68513D50D013A9C13590901EFC01FA838
S3151C00438013570C014A953A95B3778C001317050100
S3151C004390110DD98F910C232EFDFE135C0501E3ED47
S3151C0043A03CFB92473307FB002320870103290A00A5
S3151C0043B013590901E30509F8832C0B00224D5A8C6D
S3151C0043C0E684814D03250D00CA85C180618DEFC031
S3151C0043D0FFA23307B501B30D970093950D01B3F7F3
S3151C0043E08C00CD8F2320FC0003552D0083244C000C
S3151C0043F0CA85EFC0BFA0B3F7840013D70D01AA97D7
S3151C004400B38CE700110D110C93DD0C01E36C3DFB25
S3151C0044109247110A3307FB00824723209701110B91
S3151C004420E364FAF26346700101A8FD1B63860B0068
S3151C00443083A7CAFFF11AF5DBB247B640264423A868
S3151C004440770196440649F259625AD25A425BB25BCC
S3151C004450225C925C025DF24D3E8561618280B3876F
S3151C0044608940AD17F19B91073EC2D9B597560100FD
S3151C004470938686CD01469305201617550100130514
S3151C004480E5CDEFC01FA2011122CC4AC84EC606CEEE
S3151C00449026CA937736003284AA892E89B5E7098401
S3151C0044A039C083A40904ADCC9377140089EB058429
S3151C0044B01DC8884029C1AA8493771400EDDB268683
S3151C0044C0CA854E85C533630D09000327490083A79A
S3151C0044D049040A07BA9798432320E90023A0270119
S3151C0044E005842A8979F4F2406244D244B2494A8549
S3151C0044F04249056182802686A6854E85653388C01D
S3151C00450023200500AA844DBFFD171757010013076A
S3151C00451067C88A07BA9790438146B53C2A8941B732
S3151C00452085454E85ED3AAA8419C9930710275CC99F
S3151C00453085471CC923A0A90423200500B5B7975697
S3151C0045400100938666C00146930550141755010059
S3151C0045501305C5C0EFC0FF94011156C283AA0501FD
S3151C0045609C454EC693595640CE9A22CC26CA4AC85A
S3151C00457052C406CE13891A00AE843284CC412A8AD0
S3151C00458063D6270186078505E3CE27FF5285413A68
S3151C0045905DCD13084501635E300195098A09330711
S3151C0045A03501C287910723AE07FEE39DE7FEB119CD
S3151C0045B04E9883A80401938744011376F4018A0854
S3151C0045C0BE983DC693050002918D42838146984351
S3151C0045D0110391073317C700558F232EE3FE83A6BD
S3151C0045E0C7FFB3D6B600E3E417FF93875401114700
S3151C0045F063E8F800B3879840AD17F19B1387470013
S3151C0046003A982320D80091E25689D84083274A0439
S3151C004610F2400A07BA97984323282501624498C09A
S3151C00462084C34249D244B249224A924A05618280D5
S3151C004630984391071108232EE8FEE3F717FD9843CC
S3151C00464091071108232EE8FEE3E417FF75BF975662
S3151C0046500100938666AF01469305E01D17550100C0
S3151C0046601305C5AFEFC0FF8318499C492A8833053B
S3151C004670F7406318F7028A075108D1053307F8007B
S3151C004680AE9719A0637FE8000326C7FF83A6C7FF62
S3151C0046907117F117E308D6FE05456374D6007D55E0
S3151C0046A08280828098491C4A411122C426C24AC073
S3151C0046B006C6AE8432843309F740631CF702939610
S3151C0046C02700D10513074601B387D500369719A0D5
S3151C0046D063FDF51003A6C7FF8326C7FFF1177117E5
S3151C0046E0E308D6FE637AD600A6870549A2843E84D3
S3151C0046F021A0E34B09FE0149CC40EFF05F82630A1F
S3151C004700051203A30401104893824401131E2300BF
S3151C004710130844010A06930F4501C1682326250187
S3151C004720169E42967E8F968E8146FD1803A70E0016
S3151C00473083250800110FB3771701B3F31501B3874F
S3151C0047407740B6974183C18193D607410D8F369723
S3151C00475093160701B3F71701D58F1108232EFFFEF9
S3151C004760910E93560741E363C8FC330786402D1709
S3151C0047705504135F270011476365860013071F0046
S3151C0047800A07BA923388EF00C16EC2889685FD1E51
S3151C00479063FBC2079C419108910533F7D7013697F5
S3151C0047A013D6070141873297B697B3F7D7019316ED
S3151C0047B00701D58F23AEF8FE93560741E3ECC5FDE2
S3151C0047C07D1E330E5E40137ECEFF3307C80191E774
S3151C0047D08327C7FF7D137117E5DFB24022442328C8
S3151C0047E0650092440249410182808145EFF02FF316
S3151C0047F005C5B240224485471CC9232A050092449C
S3151C0048000249410182800147637486007E97C1B7C5
S3151C00481013172F007E9765BF975601009386C69285
S3151C0048200146930570231755010013052593EFC008
S3151C0048304FE797560100938626910146930550240F
S3151C0048401755010013058591EFC0AFE5B707F07F3B
S3151C004850FD8DB707C0FCBE9581476354B0003E85ED
S3151C0048608280B305B040D185CD4763C9B700B70771
S3151C0048700800B3D5B74081473E858280B11579477C
S3151C00488085476346B700B7070080B3D7B700814595
S3151C0048903E858280011126CA044922CC1304450197
S3151C0048A08A04A2944AC803A9C4FF4EC652C44A85A8
S3151C0048B0AE8906CEEFF0BF8A13070002B307A740E6
S3151C0048C023A0F900A947138AC4FF63DBA7061306B6
S3151C0048D055FF637D440383A784FF29C6B306C740DF
S3151C0048E033D7D7003319C9003369E900938584FF90
S3151C0048F03707F03F3367E900B397C7006378B40204
S3151C00490003A644FFB356D600D58F0DA0AD47630A48
S3151C004910F5003319C9003707F03F3367E9008147B3
S3151C00492031A081473707F03F3367E900F240624404
S3151C004930D2444249B249224A3E85BA8505618280E3
S3151C004940AD46898EB707F03F3357D9005D8F814737
S3151C0049506376440183A784FFB3D7D7005505331963
S3151C004960A900B367F900D9B7797156CAAE8A8545CD
S3151C00497026D24ECE52CC06D622D44AD0B284368A01
S3151C004980BA89EFF0CFD955C93707100013D944019E
S3151C0049909307F7FF1379F97F2A84E58F63030900D0
S3151C0049A0D98F3EC663920A046800EFF05F803247D7
S3151C0049B0854404C858C893070502630009061309F1
S3151C0049C0D9BC3E999304500323202A013385F44015
S3151C0049D023A0A900B2502285225492540259F249AE
S3151C0049E0624AD24A45618280280056C4EFF02FFCE9
S3151C0049F03247AA8729C1224693060002898EB3161E
S3151C004A00D7003357A700D18E3AC6B334E0008504CD
S3151C004A1054C818CC04C8E31409FA13972400229727
S3151C004A20084B9387E7BC2320FA00EFF04FF396045C
S3151C004A303385A44071BFA246C9BF97460100938621
S3151C004A40A67001469305F030174501001305057144
S3151C004A50EFC02FC579714AD02E892C0006D622D4D8
S3151C004A6026D24ECEAA893D35AA842E844A856C0050
S3151C004A7015350327090183A70901B246998F2247D9
S3151C004A809607158FBA972A876351F002D2073E9470
S3151C004A90AE862685A2853A86EF50F05DB25022542A
S3151C004AA092540259F24945618280D2079D8DCDB739
S3151C004AB041114AC006C622C426C2DD472A8963DEC6
S3151C004AC0A702175701001307E7C81C434C43175787
S3151C004AD001001307A7C8004344433E852286A686C9
S3151C004AE0EF60605B7D19AA87E31909FEB240224478
S3151C004AF0924402493E8541018280131935001747AD
S3151C004B000100130727694A971C4BB24022444C4BA1
S3151C004B10924402493E8541018280144AFD159585C1
S3151C004B208505930746018A068A05BE96AA9563F1F2
S3151C004B30D7022A8703A8070091071107232E07FF10
S3151C004B40E3EAD7FEB387C640AD17F19B91073E95A6
S3151C004B506377B5001105232E05FEE36DB5FE828035
S3151C004B60184913D6554093064501635DC7000A07CD
S3151C004B70B387E60063F8F60203A7C7FFF1177DDBD0
S3151C004B800545828093172600B697E355E6FEFD89F8
S3151C004B90F5D1904305453357B6003317B700E30BE1
S3151C004BA0E6FC828001458280797126D206D622D403
S3151C004BB04AD04ECE52CC56CA5AC85EC662C4B284BD
S3151C004BC0638305142E842A89EFF02FB50327C4FFAF
S3151C004BD09387B400D946930A84FF9379C7FF63FA77
S3151C004BE0F60A13FA87FF63C9070A63679A0A63DF23
S3151C004BF0490B175C0100130C6CF003268C00B38662
S3151C004C003A01DC426301D61413F6E7FF369650428E
S3151C004C10058A65E2F19B3386F90063544609058BC8
S3151C004C200DE3832B84FFB38B7A4103A74B00719B47
S3151C004C30BA97338B3701635B4B23338BE900635382
S3151C004C404B1DA6854A85EFE0BFCEAA84630D052CB5
S3151C004C508327C4FF130785FFF99BD697638FE71835
S3151C004C601386C9FF9307400263EEC71E4D47636A4E
S3151C004C70C716AA872287144394C35443D4C3184720
S3151C004C8098C74A85A285EFE07FA74A85EFF00FA952
S3151C004C90A1A0414AE37D9AF4B1472320F90081443F
S3151C004CA025A8DC469846B2895CC798C783A74A00E4
S3151C004CB0B38649413D46858B33873A016363D606E5
S3151C004CC0B3E7370123A2FA005C4393E717005CC3E2
S3151C004CD04A85EFF0AFA4A284B25022540259F2497D
S3151C004CE0624AD24A424BB24B224C268592544561AB
S3151C004CF08280058B39F7832B84FFB38B7A4103A7FC
S3151C004D004B00719B1DBF2254B25092540259F2495A
S3151C004D10624AD24A424BB24B224CB28545616FE085
S3151C004D203FC1B3E7470123A2FA00B3854A0193E6C4
S3151C004D301600D4C15C43A1054A8593E717005CC3E2
S3151C004D40EFE0DF9B71B7F19BB386370113060A01AF
S3151C004D5063D2C61A058BE31607EE832B84FFB38B2F
S3151C004D607A4103A74B00719BBA97338B3701E346F5
S3151C004D70CBEC83A7CB0003A78B001386C9FF930636
S3151C004D8040025CC798C793848B0063ECC61A4D47D8
S3151C004D90A687637EC7001840ED4723A4EB00584046
S3151C004DA023A6EB0063E4C71A210493870B01184062
S3151C004DB098C35840D8C3184498C733874B01B307C8
S3151C004DC04B412324EC0093E717005CC383A74B00DD
S3151C004DD04A85858BB3E7470123A2FB00EFF00F94AE
S3151C004DE0E5BD14406D4714C1544054C16369C70ED8
S3151C004DF01307840093078500BDBD8327C5FFF19B60
S3151C004E00BE996DB583A7CB0003A78B001386C9FF7C
S3151C004E10930640025CC798C793848B0063ECC60A52
S3151C004E204D47A6876376C7021840ED4723A4EB00BF
S3151C004E30584023A6EB0063F4C70E1C4423A8FB00B2
S3151C004E405C4423AAFB00630CD606410493878B01A2
S3151C004E50184098C35840D8C3184498C72684DA8982
S3151C004E60DE8AA9B5A285EFE04FCA21BDDC4698466D
S3151C004E701386C9FF930640025CC798C703A78B001D
S3151C004E8083A7CB0093848B005CC798C763E4C604D6
S3151C004E904D47A687E37EC7FA1840ED4723A4EB00CF
S3151C004EA0584023A6EB0063FCC70618449307400230
S3151C004EB023A8EB00584423AAEB00E318F6F818487D
S3151C004EC093870B02610423ACEB000327C4FF23AEBC
S3151C004ED0EB00BDBFA2852685EFE02FC341B7184462
S3151C004EE018C5584458C56305F604130704019307EF
S3151C004EF0050151B3D29AB387464123245C0193E73B
S3151C004F00170023A2FA008327C4FF4A85A284858B37
S3151C004F10B3E74701232EF4FEEFF04F8075BB210447
S3151C004F2093870B0135B74A85EFE05FFF81446DB36C
S3151C004F301448130784019307850114C9544854C99E
S3151C004F401DBBA2852685EFE04FBC85BD1C4423A84E
S3151C004F50FB005C4423AAFB006306D600410493872E
S3151C004F608B01B1B5184893870B0223ACEB0058484C
S3151C004F70610423AEEB0025BD9757010083A7479D0F
S3151C004F80828791CD9307F00F63E6C7002380C50087
S3151C004F90054582809307A0081CC17D55828001456A
S3151C004FA08280011122CC26CA06CE2A84B684975743
S3151C004FB0010083A7E79991C98297FD57630DF500F8
S3151C004FC0F2406244D2440561828001464C008297BD
S3151C004FD0FD57E317F5FE23A004009307A008F24033
S3151C004FE01CC06244D24405618280011122CC26CAAF
S3151C004FF006CE32849754010083A4C4F4975701004B
S3151C00500083A7079511CD2E86A286AA85268582970B
S3151C005010FD57630FF500F2406244D244056182805D
S3151C005020B2864C00014626858297FD57E315F5FE90
S3151C00503023200400F24062449307A0089CC0D2447B
S3151C0050400561828041712326111E2324811E232083
S3151C005050211F2E842EC0328936C62322911E232E52
S3151C005060311D232C411D232A511D2328611D232656
S3151C005070711D2324811D2322911D2320A11D232E56
S3151C005080B11B2AD0EFE00F8C1C413E853ED4EFE0CD
S3151C005090EFB48357C40082D982DB82DD82DF93F7AB
S3151C0050A007082AD281C71C48E38A0764CA8C03C72F
S3151C0050B00C00930DC110EED382D782D502CA02D63C
S3151C0050C002DA02D882C002DC02C2025A414B6E844A
S3151C0050D063080718E684930650026306D72003C7A5
S3151C0050E0140085047DFB33899441638B9417BE564B
S3151C0050F02E5723209401CA96050723222401B6D7CE
S3151C005100BAD59D46210463C7E61E924703C7040011
S3151C005110CA973EC263060714014383C81400A3033F
S3151C005120010C8504FD59014C1309A0059A8A8504B6
S3151C005130938708FE6361F904174701001307471993
S3151C0051408A07BA979C43BA978287814A938708FD38
S3151C005150A54683C8040013972A0033035701060388
S3151C005160B38A6700938708FD8504E3F4F6FE9387EC
S3151C00517008FEE373F9FC56836384080E2306111597
S3151C005180A303010C054D0549930CC11402C48149A6
S3151C00519002CE02CC02C893722C0063830200090D56
S3151C0051A0937F4C0863960F00B306A341E34ED00AC7
S3151C0051B08346710C85C23E56AE569305710C050688
S3151C0051C00CC0850685454CC0B2D7B6D51D462104F4
S3151C0051D06345D61E638002023E56AE56BC010906C6
S3151C0051E0850689451CC04CC0B2D7B6D51D462104C0
S3151C0051F0E341D61293060008638CDF70B3892941FC
S3151C005200634A307B93760C10639E0658BE56AE5787
S3151C00521023209401CA96850723222401B6D7BED51E
S3151C0052201D466345F626210413774C0009C733092E
S3151C005230A341634920276353A3016A8392479A9724
S3151C0052403EC2E3940600A24782D589C7A245528571
S3151C005250EFE0CFCA6E84A68C03C70C00E31C07E6DE
S3151C005260BE5799C36F100033824783D7C70093F785
S3151C005270070499C36F10D0148320C11E0324811EFA
S3151C00528012458324411E0329011E8329C11D032A9D
S3151C005290811D832A411D032B011D832BC11C032C3D
S3151C0052A0811C832C411C032D011C832DC11B7D617C
S3151C0052B082805285EFD01FE95C413E853EDCEFE0E3
S3151C0052C0EF91AA875285BE8BBEC0EFD0BFE71845AB
S3151C0052D03AD8E39B0B3483C8040091BD83C80400F1
S3151C0052E0136C0C02A9B533899441E39294E103C76C
S3151C0052F004000DB58245D0115285EF3050082DF5AE
S3151C0053006E8421B593768C005683E392062EB247A3
S3151C005310081946C4938B770093FB8BFF83A50B0060
S3151C00532003A64B0093878B0056C83EC6EF9000041D
S3151C0053304A58DA556A56FA564243A24888191AC878
S3151C00534046C4B6DFC2D9AEDBB2DDEF202027AAC722
S3151C0053508946A2484243E307D56E85466314D500A9
S3151C0053606F106013930610066394D8006F00307D8F
S3151C00537093061004930780056394D8006F00707C15
S3151C005380FD566394D9006F10A03793F6F8FD1306EB
S3151C00539070046394C6006F10B0007E5E93670C1099
S3151C0053A0BEC662DECE5F5E5FEE5E63540E006F109D
S3151C0053B0600D82D002C46F00907C8245D01152854C
S3151C0053C09AC6C6C4FEC216DEEF30607B631605683D
S3151C0053D03643A648964FF2526E84EDBBD24705461D
S3151C0053E093098400E35EF604BE562E5905468506CF
S3151C0053F0050950C023209401B6D7CAD51D46E341E2
S3151C0054002617925722570509B38AD70023A0E9000D
S3151C00541023A2F900D6D7CAD51D46A109E3402617F3
S3151C0054204E560C11081932D95E561AC802D132DBF7
S3151C0054306E5602D302D532DD7E5602D732DFEF60BE
S3151C005440F021D24742431384F7FFE30B05029387EF
S3151C0054501C000509A29A23A0F90023A28900D6D70D
S3151C005460CAD59D47A10963CF277F5257D0099307F9
S3151C0054701900B306570123A0C90023A2E900B6D719
S3151C005480BED51D4613848900E350F6DA8245D01139
S3151C00549052851AC8EF30A06E6310055CBE56424397
S3151C0054A06E8459B34147AE57974B0100938B8B02C1
S3151C0054B063532705824AC1491D4C9A8C21A0411968
S3151C0054C063DA2903C10685072320740123223401CC
S3151C0054D0B6D7BED52104E354FCFED011D685528521
S3151C0054E0EF30E069631A05564119BE56AE576E84F5
S3151C0054F0E3CA29FD6683CA968507232074012322E5
S3151C0055002401B6D7BED51D47E357F7D28245D01125
S3151C00551052851AC8EF30A06663100554BE56424326
S3151C00552019BBB247A303010C568383AC0700938BAC
S3151C0055304700E38A0C56FD56E38AD9224E868145DE
S3151C005540668546C656C8EFD0CFDB2AC4B24842434E
S3151C00555019E16F10804DA2478346710C5EC63389D4
S3151C00556097411348F9FF1358F84102C402CE02CCE6
S3151C00557002C8337D09018149E38F06C0050D21B997
S3151C00558032475683A303010C1C4311073AC6230654
S3151C005590F114054D0549930CC114CDBEB24783AA1F
S3151C0055A007009107E3D10A00B30A50413EC683C8DF
S3151C0055B00400136C4C00A5BE9307B00283C80400FC
S3151C0055C0A303F10CADB683C80400136C0C0885B696
S3151C0055D083C804009307A002138714006394F80081
S3151C0055E06F106072938708FD2546BA848149A546CB
S3151C0055F0E360F6B483C8040013972900BA99860998
S3151C005600BE99938708FD8504E3F6F6FE15B683C896
S3151C0056100400136C1C0021BE8347710C83C8040054
S3151C005620E39707B093070002A303F10C09B6568350
S3151C005630136C0C0193770C02638F0768B247938B2C
S3151C005640770093FB8BFF03A90B0003AD4B009387DD
S3151C0056508B003EC61376FCBF81458147A303F10C24
S3151C005660FD576388F920B367A901137CF6F763918C
S3151C0056700720639B09246391056E13791600930C0E
S3151C005680011B631709728346710C4A8D63533901DA
S3151C0056904E8D02C402CE02CC02C8E39106EEE5BCD6
S3151C0056A0568313660C019377060263860768B24716
S3151C0056B08545938B770093FB8BFF93878B0003A900
S3151C0056C00B0003AD4B003EC649BF83C80400136CD8
S3151C0056D08C00B1BC5683136C0C0193770C02638C43
S3151C0056E00760B247938B770093FB8BFF83A74B0016
S3151C0056F003A90B0013878B003AC63E8D63C0076255
S3151C005700FD5762866388F900B367A9011376FCF717
S3151C005710638E0772E3110D1EA547E3EE271D930644
S3151C0057200903A307D11A328C0549930CF11AA1BFA0
S3151C00573083C8040093078006638BF87A136C0C04E9
S3151C005740FDB293770C02638F076AB24792469C435D
S3151C00575013D7F64194C3D8C3B247A68C91073EC64D
S3151C005760E5BC83C804009307C006638BF876136CEC
S3151C0057700C0175BA3247E17793C707832314F10CE2
S3151C005780930747003EC69747010093876780032906
S3151C00579007005683014D13662C003ED68945930897
S3151C0057A0800765BD93065006E3DA16C3CE560C1168
S3151C0057B0081936D9DE561ADE02D136DBEE5602D36E
S3151C0057C002D536DDFE5602D736DFEF6020697253EE
S3151C0057D063100536BE56AE5717460100130606AFB4
S3151C0057E010C085060546850750C0B6D7BED51D46D2
S3151C0057F02104E347F620BE47524763DFE758A2570A
S3151C00580012571D461CC0AE57BA9658C08507B6D748
S3151C005810BED521046343F66AD2471389F7FFE355C5
S3151C00582020A14146AE57974B0100938BABCBE35956
S3151C005830261FDE8AC149CA8B9D4C1A8921A0C11B11
S3151C005840E3DD791DC106850723205401232234017B
S3151C005850B6D7BED52104E3D4FCFE8245D0115285B1
S3151C005860EF30E031631A051EBE56AE576E84C1BFBB
S3151C00587062868547E380F5EA89476380F506930CC3
S3151C005880011B9317DD011377790013593900130790
S3151C005890070333E92701135D3D00A38FECFEB367B5
S3151C0058A0A9016685FD1CF1FF93761600A9CE930609
S3151C0058B00003630AD70479151C1BA38FDCFE3389EE
S3151C0058C0A740328CAA8CC1B385476394F5006F1030
S3151C0058D0001D89476286E394F5FAB256930C011BA8
S3151C0058E09377F900B69703C7070013594900931716
S3151C0058F0CD0133E92701135D4D00A38FECFEB36781
S3151C005900A901FD1CF1FF1C1B33899741328CA5BBD9
S3151C005910B306A341E354D08E4145BE552E56974B34
S3151C0059200100938B2BBC635DD504A287414F5E841B
S3151C0059309D4FCA8BB68A46DE1A8921A0C11A635BA3
S3151C0059405F03C105050680C323A2E701AED7B2D506
S3151C005950A107E3D5CFFE8245D0115285EF30202218
S3151C005960631C050E414FC11ABE552E56EE879D4F20
S3151C005970E3495FFDF2584A83D6865E89A28B3E8434
S3151C005980B695050654C023207401AED7B2D59D46E4
S3151C0059902104E3D5C6868245D01152859AC246DEBD
S3151C0059A0EF30E01D55E9B38929411643F2586E8440
S3151C0059B0E35A30853E56AE56974B0100938B8BB2FD
S3151C0059C0635C3B05A287CE8A1D4FCA8946841A8909
S3151C0059D021A0C11A635D5B034106850617470100BA
S3151C0059E0130747B098C323A26701B2D7B6D5A10740
S3151C0059F0E351DFFE8245D0115285EF30401829ED68
S3151C005A00C11A3E56AE56EE871D4FE3475BFDA28874
S3151C005A104A833E844E89D6894E9685062320740178
S3151C005A2023223401B2D7B6D51D462104635CD6FCAD
S3151C005A308245D01152859AC246DEEF30401409EDDC
S3151C005A401643F2586E846FF0EFFB8245D0115285D7
S3151C005A50EF30E012630905FEA245E3870580025577
S3151C005A60EFD0DFC96FF05F804145BE552E56974B70
S3151C005A700100938B2BA66352D50626DEA287DE84F5
S3151C005A80C14ECA8B9D4396C2FE8AC6C436841A89E9
S3151C005A9021A0411463DA8E02C105050684C323A224
S3151C005AA0D701AED7B2D5A107E3D5C3FE8245D01127
S3151C005AB05285EF30C00C4DF1C14E4114BE552E56C9
S3151C005AC0EE879D43E3CA8EFC4A8396425E89A648AE
S3151C005AD0A68BF254A286D68F3E84B695050654C074
S3151C005AE023207401AED7B2D59D46210463D2C6ECE1
S3151C005AF08245D01152859AC6C6C4FEC216DEEF3048
S3151C005B00000839F93643A648964FF2526E846FF058
S3151C005B102FEA8245D01152859AC4C6C27EDEEF306A
S3151C005B2000061DF926439648F25F6E846FF08FECD3
S3151C005B30BE456354B064D2473387FC003ADE424705
S3151C005B403E896340F730BE56635F20012E56CA96C7
S3151C005B5023209401050623222401B6D7B2D59D45E0
S3151C005B602104E3C1C51C1346F9FFC2477D86B378E1
S3151C005B70C900338917416343203BC24713760C4047
S3151C005B80BE9C631F06403E49D2476346F900137606
S3151C005B901C00E308061A92572E562257BE96050677
S3151C005BA018C05CC0B6D7B2D59D452104E3C0C566F6
S3151C005BB0D24733892741F257B38997416353390139
S3151C005BC0CA89635F3001AE57CE96232094018507A0
S3151C005BD023223401B6D7BED51D462104E345F666FD
S3151C005BE093C7F9FFFD87B3F9F90033093941635DA2
S3151C005BF020E34146AE57974B0100938BAB8E635106
S3151C005C002663DE8AC149CA8B9D4C1A8921A0C11BF9
S3151C005C1063D57961C10685072320540123223401EB
S3151C005C20B6D7BED52104E3D4FCFE8245D0115285DD
S3151C005C30EF20F074E31205E2BE56AE576E84C1BF68
S3151C005C4093761C00639206FAAE57BE562320940127
S3151C005C5013891700938A160050C0D6D7CAD59D47FC
S3151C005C60E3D527818245D01152851AC8EF203071A1
S3151C005C70E31405DEBE5A2E594243EE896FF0EFFE41
S3151C005C805247854763D3E7FEC547974B0100938B65
S3151C005C906B8563D0E76A26C8C147DE849D4C9A8B08
S3151C005CA021A0411463D48768C10A050923A0990061
S3151C005CB023A2F900D6D7CAD5A109E3D42CFF824565
S3151C005CC0D0115285EF20B06BE31805D8BE5A2E5959
S3151C005CD0EE89C147F9B7324793770C011443110774
S3151C005CE03AC6F5E393770C04F9CB139906011359BD
S3151C005CF00901014D85B2324793770C0114431107F4
